{
  "_format": "hh-sol-artifact-1",
  "contractName": "PropertyNFT",
  "sourceName": "contracts/PropertyNFT.sol",
  "abi": [
    {
      "inputs": [
        {
          "internalType": "address",
          "name": "initialOwner",
          "type": "address"
        }
      ],
      "stateMutability": "nonpayable",
      "type": "constructor"
    },
    {
      "inputs": [],
      "name": "AccessControlBadConfirmation",
      "type": "error"
    },
    {
      "inputs": [
        {
          "internalType": "address",
          "name": "account",
          "type": "address"
        },
        {
          "internalType": "bytes32",
          "name": "neededRole",
          "type": "bytes32"
        }
      ],
      "name": "AccessControlUnauthorizedAccount",
      "type": "error"
    },
    {
      "inputs": [
        {
          "internalType": "address",
          "name": "sender",
          "type": "address"
        },
        {
          "internalType": "uint256",
          "name": "tokenId",
          "type": "uint256"
        },
        {
          "internalType": "address",
          "name": "owner",
          "type": "address"
        }
      ],
      "name": "ERC721IncorrectOwner",
      "type": "error"
    },
    {
      "inputs": [
        {
          "internalType": "address",
          "name": "operator",
          "type": "address"
        },
        {
          "internalType": "uint256",
          "name": "tokenId",
          "type": "uint256"
        }
      ],
      "name": "ERC721InsufficientApproval",
      "type": "error"
    },
    {
      "inputs": [
        {
          "internalType": "address",
          "name": "approver",
          "type": "address"
        }
      ],
      "name": "ERC721InvalidApprover",
      "type": "error"
    },
    {
      "inputs": [
        {
          "internalType": "address",
          "name": "operator",
          "type": "address"
        }
      ],
      "name": "ERC721InvalidOperator",
      "type": "error"
    },
    {
      "inputs": [
        {
          "internalType": "address",
          "name": "owner",
          "type": "address"
        }
      ],
      "name": "ERC721InvalidOwner",
      "type": "error"
    },
    {
      "inputs": [
        {
          "internalType": "address",
          "name": "receiver",
          "type": "address"
        }
      ],
      "name": "ERC721InvalidReceiver",
      "type": "error"
    },
    {
      "inputs": [
        {
          "internalType": "address",
          "name": "sender",
          "type": "address"
        }
      ],
      "name": "ERC721InvalidSender",
      "type": "error"
    },
    {
      "inputs": [
        {
          "internalType": "uint256",
          "name": "tokenId",
          "type": "uint256"
        }
      ],
      "name": "ERC721NonexistentToken",
      "type": "error"
    },
    {
      "inputs": [
        {
          "internalType": "address",
          "name": "owner",
          "type": "address"
        }
      ],
      "name": "OwnableInvalidOwner",
      "type": "error"
    },
    {
      "inputs": [
        {
          "internalType": "address",
          "name": "account",
          "type": "address"
        }
      ],
      "name": "OwnableUnauthorizedAccount",
      "type": "error"
    },
    {
      "anonymous": false,
      "inputs": [
        {
          "indexed": true,
          "internalType": "address",
          "name": "owner",
          "type": "address"
        },
        {
          "indexed": true,
          "internalType": "address",
          "name": "approved",
          "type": "address"
        },
        {
          "indexed": true,
          "internalType": "uint256",
          "name": "tokenId",
          "type": "uint256"
        }
      ],
      "name": "Approval",
      "type": "event"
    },
    {
      "anonymous": false,
      "inputs": [
        {
          "indexed": true,
          "internalType": "address",
          "name": "owner",
          "type": "address"
        },
        {
          "indexed": true,
          "internalType": "address",
          "name": "operator",
          "type": "address"
        },
        {
          "indexed": false,
          "internalType": "bool",
          "name": "approved",
          "type": "bool"
        }
      ],
      "name": "ApprovalForAll",
      "type": "event"
    },
    {
      "anonymous": false,
      "inputs": [
        {
          "indexed": true,
          "internalType": "address",
          "name": "previousOwner",
          "type": "address"
        },
        {
          "indexed": true,
          "internalType": "address",
          "name": "newOwner",
          "type": "address"
        }
      ],
      "name": "OwnershipTransferred",
      "type": "event"
    },
    {
      "anonymous": false,
      "inputs": [
        {
          "indexed": true,
          "internalType": "uint256",
          "name": "tokenId",
          "type": "uint256"
        },
        {
          "indexed": true,
          "internalType": "address",
          "name": "agent",
          "type": "address"
        },
        {
          "indexed": false,
          "internalType": "enum PropertyNFT.PoARights",
          "name": "right",
          "type": "uint8"
        },
        {
          "indexed": false,
          "internalType": "bool",
          "name": "allowed",
          "type": "bool"
        },
        {
          "indexed": false,
          "internalType": "uint256",
          "name": "start",
          "type": "uint256"
        },
        {
          "indexed": false,
          "internalType": "uint256",
          "name": "end",
          "type": "uint256"
        }
      ],
      "name": "PoASet",
      "type": "event"
    },
    {
      "anonymous": false,
      "inputs": [
        {
          "indexed": true,
          "internalType": "uint256",
          "name": "tokenId",
          "type": "uint256"
        },
        {
          "indexed": true,
          "internalType": "address",
          "name": "signer",
          "type": "address"
        },
        {
          "indexed": false,
          "internalType": "string",
          "name": "role",
          "type": "string"
        }
      ],
      "name": "PropertySigned",
      "type": "event"
    },
    {
      "anonymous": false,
      "inputs": [
        {
          "indexed": true,
          "internalType": "uint256",
          "name": "tokenId",
          "type": "uint256"
        },
        {
          "indexed": true,
          "internalType": "address",
          "name": "payer",
          "type": "address"
        },
        {
          "indexed": false,
          "internalType": "uint256",
          "name": "amount",
          "type": "uint256"
        },
        {
          "indexed": false,
          "internalType": "uint256",
          "name": "timestamp",
          "type": "uint256"
        }
      ],
      "name": "RentPaid",
      "type": "event"
    },
    {
      "anonymous": false,
      "inputs": [
        {
          "indexed": true,
          "internalType": "bytes32",
          "name": "role",
          "type": "bytes32"
        },
        {
          "indexed": true,
          "internalType": "bytes32",
          "name": "previousAdminRole",
          "type": "bytes32"
        },
        {
          "indexed": true,
          "internalType": "bytes32",
          "name": "newAdminRole",
          "type": "bytes32"
        }
      ],
      "name": "RoleAdminChanged",
      "type": "event"
    },
    {
      "anonymous": false,
      "inputs": [
        {
          "indexed": true,
          "internalType": "bytes32",
          "name": "role",
          "type": "bytes32"
        },
        {
          "indexed": true,
          "internalType": "address",
          "name": "account",
          "type": "address"
        },
        {
          "indexed": true,
          "internalType": "address",
          "name": "sender",
          "type": "address"
        }
      ],
      "name": "RoleGranted",
      "type": "event"
    },
    {
      "anonymous": false,
      "inputs": [
        {
          "indexed": true,
          "internalType": "bytes32",
          "name": "role",
          "type": "bytes32"
        },
        {
          "indexed": true,
          "internalType": "address",
          "name": "account",
          "type": "address"
        },
        {
          "indexed": true,
          "internalType": "address",
          "name": "sender",
          "type": "address"
        }
      ],
      "name": "RoleRevoked",
      "type": "event"
    },
    {
      "anonymous": false,
      "inputs": [
        {
          "indexed": true,
          "internalType": "address",
          "name": "from",
          "type": "address"
        },
        {
          "indexed": true,
          "internalType": "address",
          "name": "to",
          "type": "address"
        },
        {
          "indexed": true,
          "internalType": "uint256",
          "name": "tokenId",
          "type": "uint256"
        }
      ],
      "name": "Transfer",
      "type": "event"
    },
    {
      "inputs": [],
      "name": "DEFAULT_ADMIN_ROLE",
      "outputs": [
        {
          "internalType": "bytes32",
          "name": "",
          "type": "bytes32"
        }
      ],
      "stateMutability": "view",
      "type": "function"
    },
    {
      "inputs": [],
      "name": "IVSL_ROLE",
      "outputs": [
        {
          "internalType": "bytes32",
          "name": "",
          "type": "bytes32"
        }
      ],
      "stateMutability": "view",
      "type": "function"
    },
    {
      "inputs": [],
      "name": "NOTARY_ROLE",
      "outputs": [
        {
          "internalType": "bytes32",
          "name": "",
          "type": "bytes32"
        }
      ],
      "stateMutability": "view",
      "type": "function"
    },
    {
      "inputs": [],
      "name": "SURVEYOR_ROLE",
      "outputs": [
        {
          "internalType": "bytes32",
          "name": "",
          "type": "bytes32"
        }
      ],
      "stateMutability": "view",
      "type": "function"
    },
    {
      "inputs": [
        {
          "internalType": "address",
          "name": "to",
          "type": "address"
        },
        {
          "internalType": "uint256",
          "name": "tokenId",
          "type": "uint256"
        }
      ],
      "name": "approve",
      "outputs": [],
      "stateMutability": "nonpayable",
      "type": "function"
    },
    {
      "inputs": [
        {
          "internalType": "address",
          "name": "owner",
          "type": "address"
        }
      ],
      "name": "balanceOf",
      "outputs": [
        {
          "internalType": "uint256",
          "name": "",
          "type": "uint256"
        }
      ],
      "stateMutability": "view",
      "type": "function"
    },
    {
      "inputs": [
        {
          "internalType": "uint256",
          "name": "tokenId",
          "type": "uint256"
        }
      ],
      "name": "getApproved",
      "outputs": [
        {
          "internalType": "address",
          "name": "",
          "type": "address"
        }
      ],
      "stateMutability": "view",
      "type": "function"
    },
    {
      "inputs": [
        {
          "internalType": "uint256",
          "name": "tokenId",
          "type": "uint256"
        }
      ],
      "name": "getMetadata",
      "outputs": [
        {
          "internalType": "string",
          "name": "ipfsHash",
          "type": "string"
        },
        {
          "internalType": "string",
          "name": "dbHash",
          "type": "string"
        }
      ],
      "stateMutability": "view",
      "type": "function"
    },
    {
      "inputs": [
        {
          "internalType": "uint256",
          "name": "tokenId",
          "type": "uint256"
        }
      ],
      "name": "getRentStatus",
      "outputs": [
        {
          "internalType": "uint256",
          "name": "lastPaid",
          "type": "uint256"
        },
        {
          "internalType": "uint256",
          "name": "amount",
          "type": "uint256"
        },
        {
          "internalType": "uint256",
          "name": "period",
          "type": "uint256"
        },
        {
          "internalType": "address",
          "name": "receiver",
          "type": "address"
        }
      ],
      "stateMutability": "view",
      "type": "function"
    },
    {
      "inputs": [
        {
          "internalType": "bytes32",
          "name": "role",
          "type": "bytes32"
        }
      ],
      "name": "getRoleAdmin",
      "outputs": [
        {
          "internalType": "bytes32",
          "name": "",
          "type": "bytes32"
        }
      ],
      "stateMutability": "view",
      "type": "function"
    },
    {
      "inputs": [
        {
          "internalType": "address",
          "name": "account",
          "type": "address"
        }
      ],
      "name": "getRolesOf",
      "outputs": [
        {
          "internalType": "bool",
          "name": "surveyor",
          "type": "bool"
        },
        {
          "internalType": "bool",
          "name": "notary",
          "type": "bool"
        },
        {
          "internalType": "bool",
          "name": "ivsl",
          "type": "bool"
        }
      ],
      "stateMutability": "view",
      "type": "function"
    },
    {
      "inputs": [
        {
          "internalType": "uint256",
          "name": "tokenId",
          "type": "uint256"
        }
      ],
      "name": "getSignatures",
      "outputs": [
        {
          "internalType": "address",
          "name": "surveyor",
          "type": "address"
        },
        {
          "internalType": "address",
          "name": "notary",
          "type": "address"
        },
        {
          "internalType": "address",
          "name": "ivsl",
          "type": "address"
        }
      ],
      "stateMutability": "view",
      "type": "function"
    },
    {
      "inputs": [
        {
          "internalType": "bytes32",
          "name": "role",
          "type": "bytes32"
        },
        {
          "internalType": "address",
          "name": "account",
          "type": "address"
        }
      ],
      "name": "grantRole",
      "outputs": [],
      "stateMutability": "nonpayable",
      "type": "function"
    },
    {
      "inputs": [
        {
          "internalType": "bytes32",
          "name": "role",
          "type": "bytes32"
        },
        {
          "internalType": "address",
          "name": "account",
          "type": "address"
        }
      ],
      "name": "hasRole",
      "outputs": [
        {
          "internalType": "bool",
          "name": "",
          "type": "bool"
        }
      ],
      "stateMutability": "view",
      "type": "function"
    },
    {
      "inputs": [
        {
          "internalType": "address",
          "name": "owner",
          "type": "address"
        },
        {
          "internalType": "address",
          "name": "operator",
          "type": "address"
        }
      ],
      "name": "isApprovedForAll",
      "outputs": [
        {
          "internalType": "bool",
          "name": "",
          "type": "bool"
        }
      ],
      "stateMutability": "view",
      "type": "function"
    },
    {
      "inputs": [
        {
          "internalType": "uint256",
          "name": "tokenId",
          "type": "uint256"
        }
      ],
      "name": "isFullySigned",
      "outputs": [
        {
          "internalType": "bool",
          "name": "",
          "type": "bool"
        }
      ],
      "stateMutability": "view",
      "type": "function"
    },
    {
      "inputs": [
        {
          "internalType": "uint256",
          "name": "tokenId",
          "type": "uint256"
        }
      ],
      "name": "isSignedByIVSL",
      "outputs": [
        {
          "internalType": "bool",
          "name": "",
          "type": "bool"
        }
      ],
      "stateMutability": "view",
      "type": "function"
    },
    {
      "inputs": [
        {
          "internalType": "uint256",
          "name": "tokenId",
          "type": "uint256"
        }
      ],
      "name": "isSignedByNotary",
      "outputs": [
        {
          "internalType": "bool",
          "name": "",
          "type": "bool"
        }
      ],
      "stateMutability": "view",
      "type": "function"
    },
    {
      "inputs": [
        {
          "internalType": "uint256",
          "name": "tokenId",
          "type": "uint256"
        }
      ],
      "name": "isSignedBySurveyor",
      "outputs": [
        {
          "internalType": "bool",
          "name": "",
          "type": "bool"
        }
      ],
      "stateMutability": "view",
      "type": "function"
    },
    {
      "inputs": [
        {
          "internalType": "address",
          "name": "to",
          "type": "address"
        },
        {
          "internalType": "string",
          "name": "ipfsHash",
          "type": "string"
        },
        {
          "internalType": "string",
          "name": "dbHash",
          "type": "string"
        }
      ],
      "name": "mintProperty",
      "outputs": [],
      "stateMutability": "nonpayable",
      "type": "function"
    },
    {
      "inputs": [],
      "name": "name",
      "outputs": [
        {
          "internalType": "string",
          "name": "",
          "type": "string"
        }
      ],
      "stateMutability": "view",
      "type": "function"
    },
    {
      "inputs": [],
      "name": "nextTokenId",
      "outputs": [
        {
          "internalType": "uint256",
          "name": "",
          "type": "uint256"
        }
      ],
      "stateMutability": "view",
      "type": "function"
    },
    {
      "inputs": [],
      "name": "owner",
      "outputs": [
        {
          "internalType": "address",
          "name": "",
          "type": "address"
        }
      ],
      "stateMutability": "view",
      "type": "function"
    },
    {
      "inputs": [
        {
          "internalType": "uint256",
          "name": "tokenId",
          "type": "uint256"
        }
      ],
      "name": "ownerOf",
      "outputs": [
        {
          "internalType": "address",
          "name": "",
          "type": "address"
        }
      ],
      "stateMutability": "view",
      "type": "function"
    },
    {
      "inputs": [
        {
          "internalType": "uint256",
          "name": "tokenId",
          "type": "uint256"
        }
      ],
      "name": "payRent",
      "outputs": [],
      "stateMutability": "payable",
      "type": "function"
    },
    {
      "inputs": [
        {
          "internalType": "uint256",
          "name": "",
          "type": "uint256"
        },
        {
          "internalType": "address",
          "name": "",
          "type": "address"
        },
        {
          "internalType": "enum PropertyNFT.PoARights",
          "name": "",
          "type": "uint8"
        }
      ],
      "name": "poa",
      "outputs": [
        {
          "internalType": "bool",
          "name": "allowed",
          "type": "bool"
        },
        {
          "internalType": "uint256",
          "name": "start",
          "type": "uint256"
        },
        {
          "internalType": "uint256",
          "name": "end",
          "type": "uint256"
        }
      ],
      "stateMutability": "view",
      "type": "function"
    },
    {
      "inputs": [],
      "name": "renounceOwnership",
      "outputs": [],
      "stateMutability": "nonpayable",
      "type": "function"
    },
    {
      "inputs": [
        {
          "internalType": "bytes32",
          "name": "role",
          "type": "bytes32"
        },
        {
          "internalType": "address",
          "name": "callerConfirmation",
          "type": "address"
        }
      ],
      "name": "renounceRole",
      "outputs": [],
      "stateMutability": "nonpayable",
      "type": "function"
    },
    {
      "inputs": [
        {
          "internalType": "uint256",
          "name": "",
          "type": "uint256"
        }
      ],
      "name": "rentInfo",
      "outputs": [
        {
          "internalType": "uint256",
          "name": "amount",
          "type": "uint256"
        },
        {
          "internalType": "uint256",
          "name": "period",
          "type": "uint256"
        },
        {
          "internalType": "uint256",
          "name": "lastPaid",
          "type": "uint256"
        },
        {
          "internalType": "address",
          "name": "receiver",
          "type": "address"
        }
      ],
      "stateMutability": "view",
      "type": "function"
    },
    {
      "inputs": [
        {
          "internalType": "bytes32",
          "name": "role",
          "type": "bytes32"
        },
        {
          "internalType": "address",
          "name": "account",
          "type": "address"
        }
      ],
      "name": "revokeRole",
      "outputs": [],
      "stateMutability": "nonpayable",
      "type": "function"
    },
    {
      "inputs": [
        {
          "internalType": "address",
          "name": "from",
          "type": "address"
        },
        {
          "internalType": "address",
          "name": "to",
          "type": "address"
        },
        {
          "internalType": "uint256",
          "name": "tokenId",
          "type": "uint256"
        }
      ],
      "name": "safeTransferFrom",
      "outputs": [],
      "stateMutability": "nonpayable",
      "type": "function"
    },
    {
      "inputs": [
        {
          "internalType": "address",
          "name": "from",
          "type": "address"
        },
        {
          "internalType": "address",
          "name": "to",
          "type": "address"
        },
        {
          "internalType": "uint256",
          "name": "tokenId",
          "type": "uint256"
        },
        {
          "internalType": "bytes",
          "name": "data",
          "type": "bytes"
        }
      ],
      "name": "safeTransferFrom",
      "outputs": [],
      "stateMutability": "nonpayable",
      "type": "function"
    },
    {
      "inputs": [
        {
          "internalType": "address",
          "name": "operator",
          "type": "address"
        },
        {
          "internalType": "bool",
          "name": "approved",
          "type": "bool"
        }
      ],
      "name": "setApprovalForAll",
      "outputs": [],
      "stateMutability": "nonpayable",
      "type": "function"
    },
    {
      "inputs": [
        {
          "internalType": "uint256",
          "name": "tokenId",
          "type": "uint256"
        },
        {
          "internalType": "address",
          "name": "agent",
          "type": "address"
        },
        {
          "internalType": "enum PropertyNFT.PoARights",
          "name": "right",
          "type": "uint8"
        },
        {
          "internalType": "bool",
          "name": "allowed",
          "type": "bool"
        },
        {
          "internalType": "uint256",
          "name": "start",
          "type": "uint256"
        },
        {
          "internalType": "uint256",
          "name": "end",
          "type": "uint256"
        }
      ],
      "name": "setPoA",
      "outputs": [],
      "stateMutability": "nonpayable",
      "type": "function"
    },
    {
      "inputs": [
        {
          "internalType": "uint256",
          "name": "tokenId",
          "type": "uint256"
        },
        {
          "internalType": "uint256",
          "name": "amount",
          "type": "uint256"
        },
        {
          "internalType": "uint256",
          "name": "period",
          "type": "uint256"
        },
        {
          "internalType": "address",
          "name": "receiver",
          "type": "address"
        }
      ],
      "name": "setRent",
      "outputs": [],
      "stateMutability": "nonpayable",
      "type": "function"
    },
    {
      "inputs": [
        {
          "internalType": "uint256",
          "name": "tokenId",
          "type": "uint256"
        }
      ],
      "name": "signProperty",
      "outputs": [],
      "stateMutability": "nonpayable",
      "type": "function"
    },
    {
      "inputs": [
        {
          "internalType": "bytes4",
          "name": "interfaceId",
          "type": "bytes4"
        }
      ],
      "name": "supportsInterface",
      "outputs": [
        {
          "internalType": "bool",
          "name": "",
          "type": "bool"
        }
      ],
      "stateMutability": "view",
      "type": "function"
    },
    {
      "inputs": [],
      "name": "symbol",
      "outputs": [
        {
          "internalType": "string",
          "name": "",
          "type": "string"
        }
      ],
      "stateMutability": "view",
      "type": "function"
    },
    {
      "inputs": [
        {
          "internalType": "uint256",
          "name": "tokenId",
          "type": "uint256"
        }
      ],
      "name": "tokenURI",
      "outputs": [
        {
          "internalType": "string",
          "name": "",
          "type": "string"
        }
      ],
      "stateMutability": "view",
      "type": "function"
    },
    {
      "inputs": [
        {
          "internalType": "address",
          "name": "from",
          "type": "address"
        },
        {
          "internalType": "address",
          "name": "to",
          "type": "address"
        },
        {
          "internalType": "uint256",
          "name": "tokenId",
          "type": "uint256"
        }
      ],
      "name": "transferFrom",
      "outputs": [],
      "stateMutability": "nonpayable",
      "type": "function"
    },
    {
      "inputs": [
        {
          "internalType": "address",
          "name": "newOwner",
          "type": "address"
        }
      ],
      "name": "transferOwnership",
      "outputs": [],
      "stateMutability": "nonpayable",
      "type": "function"
    }
  ],
  "bytecode": "0x608060405234801561001057600080fd5b50604051612cdf380380612cdf83398101604081905261002f916101e0565b806040518060400160405280600d81526020016c1499585b115cdd185d19539195609a1b8152506040518060400160405280600681526020016514914b53919560d21b815250816000908161008491906102af565b50600161009182826102af565b5050506001600160a01b0381166100c257604051631e4fbdf760e01b81526000600482015260240160405180910390fd5b6100cb816100de565b506100d7600082610130565b505061036d565b600680546001600160a01b038381166001600160a01b0319831681179093556040519116919082907f8be0079c531659141344cd1fd0a4f28419497f9722a3daafe3b4186f6b6457e090600090a35050565b60008281526007602090815260408083206001600160a01b038516845290915281205460ff166101d65760008381526007602090815260408083206001600160a01b03861684529091529020805460ff1916600117905561018e3390565b6001600160a01b0316826001600160a01b0316847f2f8788117e7eff1d82e926ec794901d17c78024a50270940304540a733656f0d60405160405180910390a45060016101da565b5060005b92915050565b6000602082840312156101f257600080fd5b81516001600160a01b038116811461020957600080fd5b9392505050565b634e487b7160e01b600052604160045260246000fd5b600181811c9082168061023a57607f821691505b60208210810361025a57634e487b7160e01b600052602260045260246000fd5b50919050565b601f8211156102aa57806000526020600020601f840160051c810160208510156102875750805b601f840160051c820191505b818110156102a75760008155600101610293565b50505b505050565b81516001600160401b038111156102c8576102c8610210565b6102dc816102d68454610226565b84610260565b6020601f82116001811461031057600083156102f85750848201515b600019600385901b1c1916600184901b1784556102a7565b600084815260208120601f198516915b828110156103405787850151825560209485019460019092019101610320565b508482101561035e5786840151600019600387901b60f8161c191681555b50505050600190811b01905550565b6129638061037c6000396000f3fe6080604052600436106102465760003560e01c806395d89b4111610139578063c87b56dd116100b6578063e4b4e9c81161007a578063e4b4e9c8146107fa578063e4ceebfc1461081a578063e985e9c51461083a578063f2fde38b1461085a578063f4eccb8f1461087a578063f568414f146108c457600080fd5b8063c87b56dd14610719578063cc77443e14610739578063d547741f146107a7578063d9e8843f146107c7578063e317f756146107da57600080fd5b8063b2e50f58116100fd578063b2e50f5814610626578063b88d4fde14610646578063be47e02814610666578063c48b0baa1461069a578063c5430a9d146106ce57600080fd5b806395d89b411461058e578063a217fddf146105a3578063a22cb465146105b8578063a574cea4146105d8578063b2832b121461060657600080fd5b80633d1c2718116101c7578063715018a61161018b578063715018a6146104f157806375794a3c146105065780638c238b791461051c5780638da5cb5b1461055057806391d148541461056e57600080fd5b80633d1c27181461045157806342842e0e146104715780636352211e146104915780636e777dd8146104b157806370a08231146104d157600080fd5b806323b872dd1161020e57806323b872dd1461031c578063248a9ca31461033c5780632f2ff15d1461037a5780632fbaf2541461039a57806336568abe1461043157600080fd5b806301ffc9a71461024b5780630675ec801461028057806306fdde03146102a2578063081812fc146102c4578063095ea7b3146102fc575b600080fd5b34801561025757600080fd5b5061026b6102663660046121f5565b610903565b60405190151581526020015b60405180910390f35b34801561028c57600080fd5b506102a061029b366004612212565b610914565b005b3480156102ae57600080fd5b506102b7610c1c565b604051610277919061227b565b3480156102d057600080fd5b506102e46102df366004612212565b610cae565b6040516001600160a01b039091168152602001610277565b34801561030857600080fd5b506102a06103173660046122aa565b610cd7565b34801561032857600080fd5b506102a06103373660046122d4565b610ce6565b34801561034857600080fd5b5061036c610357366004612212565b60009081526007602052604090206001015490565b604051908152602001610277565b34801561038657600080fd5b506102a0610395366004612311565b610d71565b3480156103a657600080fd5b506104086103b5366004612212565b60009081526009602090815260409182902082516080810184528154808252600183015493820184905260028301549482018590526003909201546001600160a01b031660609091018190529293909290565b604080519485526020850193909352918301526001600160a01b03166060820152608001610277565b34801561043d57600080fd5b506102a061044c366004612311565b610d96565b34801561045d57600080fd5b506102a061046c36600461235c565b610dce565b34801561047d57600080fd5b506102a061048c3660046122d4565b610f53565b34801561049d57600080fd5b506102e46104ac366004612212565b610f6e565b3480156104bd57600080fd5b506102a06104cc36600461246b565b610f79565b3480156104dd57600080fd5b5061036c6104ec3660046124e4565b610fe8565b3480156104fd57600080fd5b506102a0611030565b34801561051257600080fd5b5061036c60085481565b34801561052857600080fd5b5061036c7f4f3724b2b11e1ff14982c16ee1ccbeeddf1e15256c41dccf7ecbd129a3e5d27681565b34801561055c57600080fd5b506006546001600160a01b03166102e4565b34801561057a57600080fd5b5061026b610589366004612311565b611044565b34801561059a57600080fd5b506102b761106f565b3480156105af57600080fd5b5061036c600081565b3480156105c457600080fd5b506102a06105d33660046124ff565b61107e565b3480156105e457600080fd5b506105f86105f3366004612212565b611089565b604051610277929190612529565b34801561061257600080fd5b506102a0610621366004612557565b61120d565b34801561063257600080fd5b5061026b610641366004612212565b6112d7565b34801561065257600080fd5b506102a0610661366004612596565b611327565b34801561067257600080fd5b5061036c7f2876b6444ca73956040d49b0d48b2a7c03b6b34daa638a812177f0309da79c7e81565b3480156106a657600080fd5b5061036c7f014df5ee2861d7f34562399ffa112fc59b51f810d2b875c3609ba0c31ac873d081565b3480156106da57600080fd5b506104086106e9366004612212565b6009602052600090815260409020805460018201546002830154600390930154919290916001600160a01b031684565b34801561072557600080fd5b506102b7610734366004612212565b61133f565b34801561074557600080fd5b5061078a610754366004612612565b600a60209081526000938452604080852082529284528284209052825290208054600182015460029092015460ff909116919083565b604080519315158452602084019290925290820152606001610277565b3480156107b357600080fd5b506102a06107c2366004612311565b6113b4565b6102a06107d5366004612212565b6113d9565b3480156107e657600080fd5b5061026b6107f5366004612212565b611614565b34801561080657600080fd5b5061026b610815366004612212565b611667565b34801561082657600080fd5b5061026b610835366004612212565b6116ba565b34801561084657600080fd5b5061026b61085536600461264e565b611753565b34801561086657600080fd5b506102a06108753660046124e4565b611781565b34801561088657600080fd5b5061089a610895366004612212565b6117bc565b604080516001600160a01b0394851681529284166020840152921691810191909152606001610277565b3480156108d057600080fd5b506108e46108df3660046124e4565b61183c565b6040805193151584529115156020840152151590820152606001610277565b600061090e826118cc565b92915050565b600061091f82610f6e565b6001600160a01b03160361094e5760405162461bcd60e51b815260040161094590612678565b60405180910390fd5b6109787f2876b6444ca73956040d49b0d48b2a7c03b6b34daa638a812177f0309da79c7e33611044565b15610a2c576000818152600c60205260409020546001600160a01b0316156109b25760405162461bcd60e51b8152600401610945906126a6565b6000818152600c60205260409081902080546001600160a01b03191633908117909155905182907fbbf4fe4b13ab354e887b8d523b66c461a295fabdeaacaee470958888ce85b3bc90610a219060208082526008908201526729aaa92b22aca7a960c11b604082015260600190565b60405180910390a350565b610a567f014df5ee2861d7f34562399ffa112fc59b51f810d2b875c3609ba0c31ac873d033611044565b15610b03576000818152600c60205260409020600101546001600160a01b031615610a935760405162461bcd60e51b8152600401610945906126a6565b6000818152600c60205260409081902060010180546001600160a01b03191633908117909155905182907fbbf4fe4b13ab354e887b8d523b66c461a295fabdeaacaee470958888ce85b3bc90610a21906020808252600690820152654e4f5441525960d01b604082015260600190565b610b2d7f4f3724b2b11e1ff14982c16ee1ccbeeddf1e15256c41dccf7ecbd129a3e5d27633611044565b15610bd8576000818152600c60205260409020600201546001600160a01b031615610b6a5760405162461bcd60e51b8152600401610945906126a6565b6000818152600c60205260409081902060020180546001600160a01b03191633908117909155905182907fbbf4fe4b13ab354e887b8d523b66c461a295fabdeaacaee470958888ce85b3bc90610a2190602080825260049082015263125594d360e21b604082015260600190565b60405162461bcd60e51b81526020600482015260166024820152752737ba1030baba3437b934bd32b2103a379039b4b3b760511b6044820152606401610945565b50565b606060008054610c2b906126ce565b80601f0160208091040260200160405190810160405280929190818152602001828054610c57906126ce565b8015610ca45780601f10610c7957610100808354040283529160200191610ca4565b820191906000526020600020905b815481529060010190602001808311610c8757829003601f168201915b5050505050905090565b6000610cb9826118f1565b506000828152600460205260409020546001600160a01b031661090e565b610ce282823361192a565b5050565b6001600160a01b038216610d1057604051633250574960e11b815260006004820152602401610945565b6000610d1d838333611937565b9050836001600160a01b0316816001600160a01b031614610d6b576040516364283d7b60e01b81526001600160a01b0380861660048301526024820184905282166044820152606401610945565b50505050565b600082815260076020526040902060010154610d8c81611a30565b610d6b8383611a3a565b6001600160a01b0381163314610dbf5760405163334bd91960e11b815260040160405180910390fd5b610dc98282611ace565b505050565b33610dd887610f6e565b6001600160a01b031614610e2e5760405162461bcd60e51b815260206004820152601960248201527f4f6e6c79206f776e65722063616e2061737369676e20506f41000000000000006044820152606401610945565b818111610e6e5760405162461bcd60e51b815260206004820152600e60248201526d125b9d985b1a59081c195c9a5bd960921b6044820152606401610945565b60408051606081018252841515815260208082018590528183018490526000898152600a82528381206001600160a01b038a1682529091529182209091866003811115610ebd57610ebd612708565b6003811115610ece57610ece612708565b815260208082019290925260409081016000208351815460ff191690151517815591830151600183015591820151600290910155516001600160a01b0386169087907fda596b5d81b735965c664fa53e182703da93005a6956dd6840597c762ebb16d090610f4390889088908890889061271e565b60405180910390a3505050505050565b610dc983838360405180602001604052806000815250611327565b600061090e826118f1565b6008805460009182610f8a83612772565b919050559050610f9a8482611b3b565b60408051808201825284815260208082018590526000848152600b9091529190912081518190610fca90826127d2565b5060208201516001820190610fdf90826127d2565b50505050505050565b60006001600160a01b038216611014576040516322718ad960e21b815260006004820152602401610945565b506001600160a01b031660009081526003602052604090205490565b611038611b55565b6110426000611b82565b565b60009182526007602090815260408084206001600160a01b0393909316845291905290205460ff1690565b606060018054610c2b906126ce565b610ce2338383611bd4565b606080600061109784610f6e565b6001600160a01b0316036110bd5760405162461bcd60e51b815260040161094590612678565b6000838152600b602052604080822081518083019092528054829082906110e3906126ce565b80601f016020809104026020016040519081016040528092919081815260200182805461110f906126ce565b801561115c5780601f106111315761010080835404028352916020019161115c565b820191906000526020600020905b81548152906001019060200180831161113f57829003601f168201915b50505050508152602001600182018054611175906126ce565b80601f01602080910402602001604051908101604052809291908181526020018280546111a1906126ce565b80156111ee5780601f106111c3576101008083540402835291602001916111ee565b820191906000526020600020905b8154815290600101906020018083116111d157829003601f168201915b5050505050815250509050806000015181602001519250925050915091565b3361121785610f6e565b6001600160a01b03161461126d5760405162461bcd60e51b815260206004820152601760248201527f4f6e6c79206f776e65722063616e207365742072656e740000000000000000006044820152606401610945565b604080516080810182529384526020808501938452428583019081526001600160a01b039384166060870190815260009788526009909252919095209351845591516001840155905160028301559151600390910180546001600160a01b03191691909216179055565b6000806112e383610f6e565b6001600160a01b0316036113095760405162461bcd60e51b815260040161094590612678565b506000908152600c60205260409020546001600160a01b0316151590565b611332848484610ce6565b610d6b3385858585611c73565b606061134a826118f1565b50600061136260408051602081019091526000815290565b9050600081511161138257604051806020016040528060008152506113ad565b8061138c84611d9e565b60405160200161139d929190612891565b6040516020818303038152906040525b9392505050565b6000828152600760205260409020600101546113cf81611a30565b610d6b8383611ace565b6000818152600a6020908152604080832033845282528083206003808552908352928190208151606081018352815460ff1615158152600182015493810193909352600201549082015282919061142f83610f6e565b6001600160a01b0316336001600160a01b0316148061146b57508051801561145b575080602001514210155b801561146b575080604001514211155b6114a85760405162461bcd60e51b815260206004820152600e60248201526d139bdd08185d5d1a1bdc9a5e995960921b6044820152606401610945565b600084815260096020526040902080546114f35760405162461bcd60e51b815260206004820152600c60248201526b14995b9d081b9bdd081cd95d60a21b6044820152606401610945565b805434146115365760405162461bcd60e51b815260206004820152601060248201526f125b98dbdc9c9958dd08185b5bdd5b9d60821b6044820152606401610945565b8060010154816002015461154a91906128c0565b42101561158f5760405162461bcd60e51b815260206004820152601360248201527214185e5b595b9d081b9bdd08191d59481e595d606a1b6044820152606401610945565b42600282015560038101546040516001600160a01b03909116903480156108fc02916000818181858888f193505050501580156115d0573d6000803e3d6000fd5b5060408051348152426020820152339187917fe7b793c2d375aa5934e16873f97e647671990418e9fead32b65a4d41e8fb4d1d910160405180910390a35050505050565b60008061162083610f6e565b6001600160a01b0316036116465760405162461bcd60e51b815260040161094590612678565b506000908152600c60205260409020600101546001600160a01b0316151590565b60008061167383610f6e565b6001600160a01b0316036116995760405162461bcd60e51b815260040161094590612678565b506000908152600c60205260409020600201546001600160a01b0316151590565b6000806116c683610f6e565b6001600160a01b0316036116ec5760405162461bcd60e51b815260040161094590612678565b6000828152600c60205260409020546001600160a01b03161580159061172b57506000828152600c60205260409020600101546001600160a01b031615155b801561090e5750506000908152600c60205260409020600201546001600160a01b0316151590565b6001600160a01b03918216600090815260056020908152604080832093909416825291909152205460ff1690565b611789611b55565b6001600160a01b0381166117b357604051631e4fbdf760e01b815260006004820152602401610945565b610c1981611b82565b60008080806117ca85610f6e565b6001600160a01b0316036117f05760405162461bcd60e51b815260040161094590612678565b5050506000818152600c6020908152604091829020825160608101845281546001600160a01b039081168083526001840154821694830185905260029093015416930183905293909250565b600080600061186b7f2876b6444ca73956040d49b0d48b2a7c03b6b34daa638a812177f0309da79c7e85611044565b6118957f014df5ee2861d7f34562399ffa112fc59b51f810d2b875c3609ba0c31ac873d086611044565b6118bf7f4f3724b2b11e1ff14982c16ee1ccbeeddf1e15256c41dccf7ecbd129a3e5d27687611044565b9250925092509193909250565b60006001600160e01b03198216637965db0b60e01b148061090e575061090e82611e31565b6000818152600260205260408120546001600160a01b03168061090e57604051637e27328960e01b815260048101849052602401610945565b610dc98383836001611e81565b6000828152600260205260408120546001600160a01b039081169083161561196457611964818486611f87565b6001600160a01b038116156119a257611981600085600080611e81565b6001600160a01b038116600090815260036020526040902080546000190190555b6001600160a01b038516156119d1576001600160a01b0385166000908152600360205260409020805460010190555b60008481526002602052604080822080546001600160a01b0319166001600160a01b0389811691821790925591518793918516917fddf252ad1be2c89b69c2b068fc378daa952ba7f163c4a11628f55a4df523b3ef91a4949350505050565b610c198133611feb565b6000611a468383611044565b611ac65760008381526007602090815260408083206001600160a01b03861684529091529020805460ff19166001179055611a7e3390565b6001600160a01b0316826001600160a01b0316847f2f8788117e7eff1d82e926ec794901d17c78024a50270940304540a733656f0d60405160405180910390a450600161090e565b50600061090e565b6000611ada8383611044565b15611ac65760008381526007602090815260408083206001600160a01b0386168085529252808320805460ff1916905551339286917ff6391f5c32d9c69d2a47ea670b442974b53935d1edc7fd64eb21e047a839171b9190a450600161090e565b610ce2828260405180602001604052806000815250612024565b6006546001600160a01b031633146110425760405163118cdaa760e01b8152336004820152602401610945565b600680546001600160a01b038381166001600160a01b0319831681179093556040519116919082907f8be0079c531659141344cd1fd0a4f28419497f9722a3daafe3b4186f6b6457e090600090a35050565b6001600160a01b038216611c0657604051630b61174360e31b81526001600160a01b0383166004820152602401610945565b6001600160a01b03838116600081815260056020908152604080832094871680845294825291829020805460ff191686151590811790915591519182527f17307eab39ab6107e8899845ad3d59bd9653f200f220920489ca2b5937696c31910160405180910390a3505050565b6001600160a01b0383163b15611d9757604051630a85bd0160e11b81526001600160a01b0384169063150b7a0290611cb59088908890879087906004016128d3565b6020604051808303816000875af1925050508015611cf0575060408051601f3d908101601f19168201909252611ced91810190612910565b60015b611d59573d808015611d1e576040519150601f19603f3d011682016040523d82523d6000602084013e611d23565b606091505b508051600003611d5157604051633250574960e11b81526001600160a01b0385166004820152602401610945565b805160208201fd5b6001600160e01b03198116630a85bd0160e11b14611d9557604051633250574960e11b81526001600160a01b0385166004820152602401610945565b505b5050505050565b60606000611dab8361203c565b600101905060008167ffffffffffffffff811115611dcb57611dcb6123bb565b6040519080825280601f01601f191660200182016040528015611df5576020820181803683370190505b5090508181016020015b600019016f181899199a1a9b1b9c1cb0b131b232b360811b600a86061a8153600a8504945084611dff57509392505050565b60006001600160e01b031982166380ac58cd60e01b1480611e6257506001600160e01b03198216635b5e139f60e01b145b8061090e57506301ffc9a760e01b6001600160e01b031983161461090e565b8080611e9557506001600160a01b03821615155b15611f57576000611ea5846118f1565b90506001600160a01b03831615801590611ed15750826001600160a01b0316816001600160a01b031614155b8015611ee45750611ee28184611753565b155b15611f0d5760405163a9fbf51f60e01b81526001600160a01b0384166004820152602401610945565b8115611f555783856001600160a01b0316826001600160a01b03167f8c5be1e5ebec7d5bd14f71427d1e84f3dd0314c0f7b2291e5b200ac8c7c3b92560405160405180910390a45b505b5050600090815260046020526040902080546001600160a01b0319166001600160a01b0392909216919091179055565b611f92838383612114565b610dc9576001600160a01b038316611fc057604051637e27328960e01b815260048101829052602401610945565b60405163177e802f60e01b81526001600160a01b038316600482015260248101829052604401610945565b611ff58282611044565b610ce25760405163e2517d3f60e01b81526001600160a01b038216600482015260248101839052604401610945565b61202e838361217a565b610dc9336000858585611c73565b60008072184f03e93ff9f4daa797ed6e38ed64bf6a1f0160401b831061207b5772184f03e93ff9f4daa797ed6e38ed64bf6a1f0160401b830492506040015b6d04ee2d6d415b85acef810000000083106120a7576d04ee2d6d415b85acef8100000000830492506020015b662386f26fc1000083106120c557662386f26fc10000830492506010015b6305f5e10083106120dd576305f5e100830492506008015b61271083106120f157612710830492506004015b60648310612103576064830492506002015b600a831061090e5760010192915050565b60006001600160a01b038316158015906121725750826001600160a01b0316846001600160a01b0316148061214e575061214e8484611753565b8061217257506000828152600460205260409020546001600160a01b038481169116145b949350505050565b6001600160a01b0382166121a457604051633250574960e11b815260006004820152602401610945565b60006121b283836000611937565b90506001600160a01b03811615610dc9576040516339e3563760e11b815260006004820152602401610945565b6001600160e01b031981168114610c1957600080fd5b60006020828403121561220757600080fd5b81356113ad816121df565b60006020828403121561222457600080fd5b5035919050565b60005b8381101561224657818101518382015260200161222e565b50506000910152565b6000815180845261226781602086016020860161222b565b601f01601f19169290920160200192915050565b6020815260006113ad602083018461224f565b80356001600160a01b03811681146122a557600080fd5b919050565b600080604083850312156122bd57600080fd5b6122c68361228e565b946020939093013593505050565b6000806000606084860312156122e957600080fd5b6122f28461228e565b92506123006020850161228e565b929592945050506040919091013590565b6000806040838503121561232457600080fd5b823591506123346020840161228e565b90509250929050565b8035600481106122a557600080fd5b803580151581146122a557600080fd5b60008060008060008060c0878903121561237557600080fd5b863595506123856020880161228e565b94506123936040880161233d565b93506123a16060880161234c565b9598949750929560808101359460a0909101359350915050565b634e487b7160e01b600052604160045260246000fd5b60008067ffffffffffffffff8411156123ec576123ec6123bb565b50604051601f19601f85018116603f0116810181811067ffffffffffffffff8211171561241b5761241b6123bb565b60405283815290508082840185101561243357600080fd5b83836020830137600060208583010152509392505050565b600082601f83011261245c57600080fd5b6113ad838335602085016123d1565b60008060006060848603121561248057600080fd5b6124898461228e565b9250602084013567ffffffffffffffff8111156124a557600080fd5b6124b18682870161244b565b925050604084013567ffffffffffffffff8111156124ce57600080fd5b6124da8682870161244b565b9150509250925092565b6000602082840312156124f657600080fd5b6113ad8261228e565b6000806040838503121561251257600080fd5b61251b8361228e565b91506123346020840161234c565b60408152600061253c604083018561224f565b828103602084015261254e818561224f565b95945050505050565b6000806000806080858703121561256d57600080fd5b84359350602085013592506040850135915061258b6060860161228e565b905092959194509250565b600080600080608085870312156125ac57600080fd5b6125b58561228e565b93506125c36020860161228e565b925060408501359150606085013567ffffffffffffffff8111156125e657600080fd5b8501601f810187136125f757600080fd5b612606878235602084016123d1565b91505092959194509250565b60008060006060848603121561262757600080fd5b833592506126376020850161228e565b91506126456040850161233d565b90509250925092565b6000806040838503121561266157600080fd5b61266a8361228e565b91506123346020840161228e565b602080825260149082015273151bdad95b88191bd95cc81b9bdd08195e1a5cdd60621b604082015260600190565b6020808252600e908201526d105b1c9958591e481cda59db995960921b604082015260600190565b600181811c908216806126e257607f821691505b60208210810361270257634e487b7160e01b600052602260045260246000fd5b50919050565b634e487b7160e01b600052602160045260246000fd5b608081016004861061274057634e487b7160e01b600052602160045260246000fd5b9481529215156020840152604083019190915260609091015290565b634e487b7160e01b600052601160045260246000fd5b6000600182016127845761278461275c565b5060010190565b601f821115610dc957806000526020600020601f840160051c810160208510156127b25750805b601f840160051c820191505b81811015611d9757600081556001016127be565b815167ffffffffffffffff8111156127ec576127ec6123bb565b612800816127fa84546126ce565b8461278b565b6020601f821160018114612834576000831561281c5750848201515b600019600385901b1c1916600184901b178455611d97565b600084815260208120601f198516915b828110156128645787850151825560209485019460019092019101612844565b50848210156128825786840151600019600387901b60f8161c191681555b50505050600190811b01905550565b600083516128a381846020880161222b565b8351908301906128b781836020880161222b565b01949350505050565b8082018082111561090e5761090e61275c565b6001600160a01b03858116825284166020820152604081018390526080606082018190526000906129069083018461224f565b9695505050505050565b60006020828403121561292257600080fd5b81516113ad816121df56fea26469706673582212206d332fbd86fd8ed29b35c32f94a39420d4d82eff271cf5805d819e570af6a7f564736f6c634300081b0033",
  "linkReferences": {},
  "deployedLinkReferences": {}
}